:03000000020448AF
:0C044800787FE4F6D8FD75815D02048F1A
:10076D000211000002130000050CCAEF7C290005E0
:10077D0015CA6F3C2900051A517EC9CF00051F31DE
:10078D00111BD00005248CF3DA0B0005291974D93F
:02079D00590001
:10083300758901758CFF758AA3D28CD2AFD2A92298
:03000B000206BD2D
:1006BD00C0E0C0D0C28C758CFF758AA3D28C051496
:1006CD00E51470020513C39512E51395115004D26C
:1006DD00B28002C2B2C3E51494C8E513940040067B
:0B06ED00751300751400D0D0D0E0326F
:0B085F00C2B31208331207A00203A36B
:070733007F1E7E001207C5C6
:10073A00753502753432753302C2B37F0A1207FD6A
:10074A00D2B37F0A1207FD1533E533D3940050E97B
:10075A001534E534D3940050DD1535E535D39400CE
:02076A0050D16C
:01076C00226A
:1007C500D3EF9400EE940040137D017C8E7B02DB19
:0C07D500FEDCFADDF6EF1F70E71E80E48A
:0107E10022F5
:1007FD00EFD39400400B7E017D02DDFEDEFA1F80FB
:01080D00EFFB
:01080E0022C7
:0E084300E4F55DC2AF8F993099FDC299D2AF36
:010851002284
:1003A3007B007A0079087F5212054FEF70F2FB7AD7
:1003B30000792E1204D4EF70E7782E7C00FDFB7ACF
:1003C30000790C12020CEF6048782E7C007D007BD4
:1003D300007A00792412020CEF6036782E7C007DBF
:1003E300007B007A00791512020CEF6024782E7CD2
:1003F300007D007B007A00791A12020CEF601278FC
:100403002E7C007D007B007A00792912020CEF70AC
:100413001E12073A7F321207357511007512037FDA
:10042300DC7E051207C57511007512120203A312B3
:10043300073A1207331207331207337F1E7E001267
:0504430007C50203A340
:100680007B007A0079087F5212054FEF70F2FB7AF7
:1006900000792E1204D4EF70E7AF2E120843AF2F6B
:1006A000120843AF30120843AF311208437FF47E83
:0D06B000011207C57FF47E011207C580C34B
:1007A000758921759840758DE8858D8B758780D208
:1007B000AFD2ACD28EC2B31206421200031208218D
:0507C0007F410205B4B9
:08054F008F338B348A358936A5
:1005570012080F7D077F0D1206F87D037F1412081E
:1005670052853339755001755100755200755339ED
:100577007554007555007556377B007A0079397FB9
:100587000C120229EF7023E53864104537701BAB56
:1005970034AA35A936E53912003BAB34AA35A9365A
:0C05A700900001E53A12004D80027FFE3A
:0105B3002225
:0604D4008B338A348935E8
:1004DA00E4F53712080FE4FD7F0D1206F87D807FE0
:1004EA000E120813753A93753B2075500275510028
:1004FA0075520075533A7554007555007556387B18
:10050A00007A00793A7F0C1202298F36E536702B71
:10051A00FF743A2FF8E6AB33AA34A9358F82758374
:10052A000012004D743A2FF8E662370FBF04E274E6
:10053A003A2FF8E6653760037536FE7D807F0E1226
:04054A000852AF366E
:01054E00228A
:10064200D2A400C2A400D2A4007D0F7F011206F83A
:10065200007D3D7F111206F87D1E7F2D1206F8E403
:10066200FD7F2C1206F87D8D7F2A1206F87D3E7FD3
:0E0672002B1206F87D407F151206F87F00223D
:1005B400EF6441704012080F7D3D7F111206F87DF3
:1005C400867F171206F87D7F7F261206F87D1E7F30
:1005D4002D1206F8E4FD7F2C1206F87D8D7F2A1279
:1005E40006F87D3E7F2B1206F87F017E001207E29B
:0B05F40012082180037FFF227F0022FD
:0605FF00AC07AB05E4FEB1
:10060500E4FEC2A1C2A0EF25E0547E4480FF7D0830
:10061500EF30E703D38001C392A2D2A1EF25E0FF1B
:10062500C2A1DDEC7D08D2A1EE25E0FEA2A3E43354
:0C0635004206C2A1DDF0D2A0D2A1AF06A7
:010641002296
:1006F800C2A1C2A0EF25E0547EFF7E08EF30E703D9
:10070800D38001C392A2D2A1EF25E0FFC2A1DEEC03
:100718007E08ED30E703D38001C392A2D2A1ED2574
:0A072800E0FDC2A1DEECD2A0D2A1D8
:0107320022A4
:0D0852001205FFAE07AF04EB4EFD0206F8E5
:04080F007D087F08D9
:0E0813001205FFAE07AF04EBF45EFD0206F81F
:080229008F4C8B4D8A4E894F6A
:100231007557FEE4F558F559E54C24F4600C24FE9D
:10024100700E7558127559108006755877755930AA
:10025100E5584480FD7F021206F87D807F04120874
:1002610013E4FD7F011206F87D807F0A120852E433
:10027100F55BF55CC3E55C9550E55B9400501FAB05
:100281004DAA4EA94F855C82855B8312000EFD7FCE
:10029100091206F8055CE55C70DA055B80D6AD4CA9
:1002A1007F011206F8E54CB40C077D807F0D120822
:1002B10052755B07755CD07F041206058F5AE55CA9
:1002C100155C7002155BE55C455B6009E55A20E051
:1002D10004555960E27D807F0D120813E55C455B92
:1002E10070030203927F06120605EF541B6003029E
:1002F100038FF557E55A555830E0037557FFE54C24
:10030100640C60030203927F0A1206058F5A7F0C68
:10031100120605EF5407FD6021E55A24FFFFE4347E
:10032100FFFEEF7803C333CE33CED8F97C002DFF27
:10033100EC3EAB54AA55A956800FE55A75F008A4B6
:10034100FFAB54AA55A956E5F08FF012006FE55A9C
:100351007003755A01E55AD394124003755A12E499
:10036100F55BF55CC3E55C955AE55B940050227F33
:1003710009120605AB51AA52A953855C82855B839C
:10038100EF12004D055CE55C70DA055B80D67557B0
:10039100FE7D807F0C120852E4FD7F011206F8AF4A
:0103A1005704
:0103A2002238
:100821007F14120605EF540370077D037F1412082D
:010831005274
:0108320022A3
:070003007D037F14020813C6
:1007E200E4F5CAF5CCD2CAEF1FAC0670011E4C600C
:0B07F2000730CFFDC2CF80EFC2CA224B
:1004540002085FE493A3F8E493A34003F68001F257
:1004640008DFF48029E493A3F85407240CC8C333A9
:10047400C4540F4420C8834004F456800146F6DF78
:10048400E4800B010204081020408090076DE47E94
:10049400019360BCA3FF543F30E509541FFEE4936D
:1004A400A360010ECF54C025E060A840B8E493A334
:1004B400FAE493A3F8E493A3C8C582C8CAC583CA5F
:1004C400F0A3C8C582C8CAC583CADFE9DEE780BE17
:01079F000059
:10000E00BB010CE58229F582E5833AF583E02250A7
:10001E0006E92582F8E622BBFE06E92582F8E222F1
:0D002E00E58229F582E5833AF583E493220B
:10003B00BB010689828A83F0225002F722BBFE01A4
:02004B00F3229E
:10004D00F8BB010DE58229F582E5833AF583E8F0E9
:10005D00225006E92582C8F622BBFE05E92582C895
:02006D00F2227D
:10006F00BB010A89828A83F0E5F0A3F0225006F7DC
:0F007F0009A7F01922BBFE06F3E5F009F31922D9
:10008E00E3F5F009E208B5F06D606B80F3E3F5F08F
:10009E0009E608B5F060605E80F387F009E608B502
:1000AE00F054605280F487F009E208B5F0486046DB
:1000BE0080F488828C8387F009E0A3B5F03860362F
:1000CE0080F488828C8387F009E493A3B5F02760CF
:1000DE002580F388828C83E3F5F009E0A3B5F01652
:1000EE00601480F388828C83E3F5F009E493A3B562
:1000FE00F004600280F20201B9808580E7808E8074
:10010E00D2803C8015806C807E809B80B5808B80F9
:10011E00A1804F8070803A0201C589828A83ECFAF1
:10012E00E493F5F0A3C8C582C8CCC583CCE493A3F1
:10013E00C8C582C8CCC583CCB5F070606E80E1892D
:10014E00828A83E493F5F0A3E208B5F05E605C80EA
:10015E00F289828A83E0F5F0A3E608B5F04D604B94
:10016E0080F389828A83E0F5F0A3E208B5F03C6063
:10017E003A80F389828A83E493F5F0A3E608B5F01A
:10018E002A602880F2805389828A83ECFAE493F500
:10019E00F0A3C8C582C8CCC583CCE0A3C8C582C8AD
:1001AE00CCC583CCB5F004600280E27FFFB5F002CF
:1001BE000F2240027F012289828A83ECFAE0F5F059
:1001CE00A3C8C582C8CCC583CCE0A3C8C582C8CCA1
:1001DE00C583CCB5F0D560D380E389828A83ECFAEF
:1001EE00E0F5F0A3C8C582C8CCC583CCE493A3C800
:1001FE00C582C8CCC583CCB5F0B160AF80E288F0C3
:10020E00ED2402B4040050A3F582EB2402B40400E2
:0B021E005099232345822390010773B1
:00000001FF
